:020000040000fa
:080000001401040000000000df
:020000040000fa
:1002000020330400000000007c37040000000000e0
:10021000603e0400000000003c3f040000000000bd
:100220009401040000000000ef3e210080792200cc
:100230000001880000000000050007000c00070016
:100240006c2b0200000000000040da000000fe00fd
:100250004440a900c00e20000000e000030032006e
:1002600000002000a00188004440a8000000060013
:1002700080222500010020001600370062004000a7
:10028000e0804800910188009001ba0062004000bf
:10029000e0804800910188009002ba0062004000ae
:1002a000e08048000002eb006028e10005003a0011
:1002b0008301e90007003300038009000059eb00c7
:1002c000040037006128e100010032000082eb00e9
:1002d00005000700910188001001ba000200e0004b
:1002e000e6ff3a00000005009101880080027800d6
:1002f00062004000e08048003559ba008301e900ff
:10030000080032002559ba008301e90005003200d7
:100310000400e000f4ff320015d9ba008301e900bf
:10032000f1ff3a0000000600881f78000204780000
:10033000ce000700080040004f04780000000600cf
:100340000000fa00881f7800000478003fb9970089
:10035000ea8157008000780040192000d100070092
:10036000800078000000e000020035000040eb0053
:1003700000f47800010078004f0478000080fa0053
:1003800000000600889fbe0080047800118c800069
:10039000010078000100e0000a003a004118210045
:1003a0008411e2001c00320011007800908f54008c
:1003b000140036008080e8001100e000faff3a00e7
:1003c000150037001100e00006003200110178002e
:1003d000928f54000b0036008280e8001100e0008c
:1003e000faff3a001001780041182100208c8000ab
:1003f000820f50000800320011007800908f5400e6
:1004000002003e0001007800150037008080e800ff
:10041000910f1100f8ff3a00388c8000890f5400ca
:10042000010031000904780008007800520107003b
:10043000000178000000e00005003a000000eb0039
:10044000890f5400060032000804d100f3ff370082
:10045000081978000200780044000700cbff37003d
:100460004f04be0000000600881f780063044000af
:100470000800a1000001eb00800f540022003600ac
:10048000e30f540001003e004800200008007800ff
:10049000bcff0700800078000001eb000000e000d6
:1004a0001900320010017800920178006480510038
:1004b000880f50000300310012009000800878007f
:1004c0000700370008004100800878001202900001
:1004d000140098001100780008885100080978007d
:1004e000910078000100e00004003200110090004b
:1004f0008180e8000000e00001003a008000eb008d
:10050000118c88000281e800020078004f04780016
:1005100000000600881f780000047800628c8000cc
:10052000408c8000800f51000a0031008200d00012
:100530000200e800608c8800508c80006100780028
:1005400000000100628c8000408c8000800f510010
:10055000f6ff3900800a2100508c8800200220001c
:10056000408c880008007800f20807000000e000d6
:10057000360032000081e90012027800e30f5200d9
:10058000320036000408a30030003a00218c8000bd
:100590000100e00002003200810f51000300310031
:1005a00001087800228c88001d0037008101780046
:1005b000110090000000e00008003200820f50009f
:1005c0000600310080017800100090000000e0007b
:1005d00002003200820f5000faff390093007800c9
:1005e00001804100800f510018003900820f500037
:1005f00003003a00848940000301780008003700b6
:10060000930090000100e00003003200040041006c
:10061000808f50000d003900110198009201980060
:10062000920090000100e000080032009201780082
:1006300003004100810f500004003a008231ef00b6
:100640001089410010009000100198000000060081
:10065000800078001004e000020032005104e00045
:10066000feff3a0000805000000006008001780084
:100670000200e00003003200b15978000201e900f5
:10068000fdff3a0000000600800178000200e00053
:1006900003003200815978000201e900fdff3a00b1
:1006a000000006006200fa00889fbe008a9fbe001c
:1006b0000004be0002057800830078006a805700bd
:1006c000b4000700f88f9f0089979f000000eb009f
:1006d000909f9f001a80fb008005fb000000ea004d
:1006e000cf04de000904780050022000808f5500fe
:1006f00001003a000904e9000800e0000c003400a1
:100700000f909700080178008a007800ff89970011
:100710000300010080979f008080eb000000e00054
:10072000900032001f98970008004000909f9f00a3
:100730000905450050022000808f5500040032005a
:100740000b00e000e3ff3a009f9897008500370018
:100750000000eb00f0979f00e0979f00d0979f006c
:10076000c0979f00b0979f00a0979f00b09f9f00e9
:1007700009003700e0142100008050000000d00084
:100780004115210001004000bf9897009080700043
:10079000b19f9f000a05e8009a00fb00e0142100c9
:1007a0007e000700800078000000e000f1ff3a00c2
:1007b000a0c2b3009a4f10000e003a003fb8970055
:1007c0000080e900b0bf9f0010007800a09f9f004c
:1007d0000000e00005003d000000ea00a09f9f002f
:1007e0003f9897000020a000b09f9f000a05e800f6
:1007f00011003700a19f9f000b003700af989700b2
:10080000f0ff2700808f5000060032006a09b9000f
:100810001a00fb000200400001fd2f000100400013
:10082000a09f9f000a05e8001a00fb006300070074
:100830000000e000f1ff3a00e0c2b3009a4f100060
:10084000030032000080eb00809f9f001c003700f7
:10085000a0c2b300da4f100007003a003fb897007b
:100860000080e900b0bf9f0010007800809f9f00cb
:100870000a05e800120037000000eb00809f9f008f
:100880000b0037008f989700f0ff2700808f5000f3
:10089000060032006a09b9001a00fb00020040009d
:1008a00001fd2f0001004000809f9f000a05e80025
:1008b0001a00fb00410007000000e000f1ff3a00d1
:1008c0009a00fb00001d2100340007008040eb006f
:1008d0000000e00001003200ba407800817f9f00f4
:1008e00080c6b30080cf500004003a009acf1000b9
:1008f00002003a0066405000070037008f789700ea
:10090000c0c6b30080cf500005003a009acf100057
:1009100003003a0065404000807f9f000a05e80020
:10092000a0fb2f00008447003a417800880178003e
:10093000ea80570060f92f000f00400025000700f3
:100940000000e00006003a008800780060f92f00ff
:100950000f004000cf0107000000e0005dff3d00f8
:100960008080eb00010078004f05be004f04be0000
:100970000080fa00000006000000e00003003400e0
:10098000f4070700e10f400001003a000000eb000f
:1009900000000600010878000000060090cf10005b
:1009a000050032001004e00001003a0000000500dc
:1009b000d0cf1000fbff3a00000006000003b1009a
:1009c000030035009000b10001003c00100005005c
:1009d00000000500889fbe008a1f78000004780090
:1009e0000102780002457800830478000200fb00d1
:1009f000cf80de005002b1000180b100320520003e
:100a0000820f5000e08f580095013e000060010009
:100a10008d013700920137009101370090013700b6
:100a20008f0137008e0137008d0137008c013700b0
:100a30008b0137008a0137008901370088013700b0
:100a400087013700860137008501370084013700b0
:100a500083013700820137008101370080013700b0
:100a60007f0137007e0137007d0137007c013700b0
:100a70007b0137007a0137007901370078013700b0
:100a8000ed0037007601370075013700740137003b
:100a9000e9003700e8003700e70037007001370051
:100aa0006f0137006e0137006d0137006c013700b0
:100ab0006b0137006a0137006901370068013700b0
:100ac00067013700660137004b01370064013700ca
:100ad0006301370062013700610137008000370091
:100ae0005f0137005e0137005d0137005c013700b0
:100af0005b0137005a0137005901370058013700b0
:100b0000cd00370056013700150037001c003700b4
:100b1000c9003700c8003700c70037005001370050
:100b2000170037004e0137004d0137004c013700e8
:100b30004b013700ec003700690037001f01370018
:100b400047013700460137002b01370044013700c9
:100b50006300370042013700410137006000370071
:100b60006e01440012007800808141009480e90009
:100b7000010a78000009e800914978004101370036
:100b8000a8609000c0c6b30080cf50000a003a00b1
:100b90009400780064805000000a78001000be00c5
:100ba0004f89de00cf91de000002be000203780014
:100bb000820378001500370010c7b30080cf5000c3
:100bc00002003a0014017800040037001401780094
:100bd000a0c6b30080cf500005003a006800510065
:100be000000a78003002be002003be000700370074
:100bf0000280e900000a7800100078000002780006
:100c0000cfa2de000503780086037800049cbe00b6
:100c10000694be00a860900080c6b30080cf50004c
:100c20000f00320020c6b30080cf500006003a000b
:100c3000184078000000fb00cf80de000101780042
:100c4000820178000a00370040c7b30080cf50000f
:100c5000030032006640400080cf500006003a009a
:100c600018007800cf80de00010178008201780052
:100c7000009cbe000294be003800be002801be00e9
:100c8000e00f5000e08f5800e00f5900e08f59004e
:100c900004003d006e01440092007800d0c2b30011
:100ca0000c003700081090000018a3000400320068
:100cb0006e01440092007800b0c2b3000500370016
:100cc0000008a300570032006e0144009200780033
:100cd00000c2b30080f478000109e8005100370039
:100ce000a8609000c0c6b30080cf500006003a0054
:100cf0009400780064805000000a78001002be0062
:100d00006033b8001500370010c7b30080cf500023
:100d100002003a0014017800040037001401780042
:100d2000a0c6b30080cf500005003a006800510013
:100d3000000a78003002be002003be000700370022
:100d40000280e900000a78001000780000027800b4
:100d5000050020000600200007002000049cbe00c3
:100d60000694be00a860900080c6b30080cf5000fb
:100d70000f00320020c6b30080cf500006003a00ba
:100d8000184078000080fb000100200002002000d5
:100d9000030020000a00370040c7b30080cf500096
:100da000030032006640400080cf500006003a0049
:100db000180078000100200002002000030020003d
:100dc000009cbe000294be00081090000038a300f2
:100dd000140032003800be002801be00e00f5000b1
:100de000e08f5800e00f5900e08f59000d003200ed
:100df00080c7b300804f55000300320080c5b300a8
:100e0000804f550007003a006e00440090007800c3
:100e100002c3b30082f478008100e8008af478000d
:100e20000108e80078009000008044006004980009
:100e30008a4078006d003700a860900014017800a7
:100e4000c0c4b30080cf500005003a0068005100d4
:100e5000000a78005001be004000be0004003700c8
:100e600064005100000a78001000be00f20b070079
:100e7000009cbe000294be00380090000000e0001c
:100e800004003d006e01440092007800d0c2b3001f
:100e90000c003700081090000018a3000400320076
:100ea0006e01440092007800b0c2b3000500370024
:100eb0000008a300050032006e0144009200780093
:100ec00000c2b30080f478000109e80078009000c7
:100ed00000804400600498008a4078000800780090
:100ee0003a01070067003700286090008000fb008f
:100ef000c0062000808f5000230032000a003c0012
:100f000064005000808f50002600320004003c0036
:100f100066005000808f50000b0032002100370027
:100f2000a00620000500370040072000808f5000f9
:100f30001c0032001b003c0063005000808f5000fa
:100f400007003200170037001480e900000a78001b
:100f500010007800485c900008487800490037008d
:100f60001480e900000a78001002780068089000f8
:100f7000cf80de000101780082017800009abe0077
:100f80000292be003f0037001480e900000a78009a
:100f90001001780068089000cf80de000089be0054
:100fa000380037001480e900000a7800100078004b
:100fb000680c900008087800320037001480e900bf
:100fc000000a780010007800cf80de000101780070
:100fd00082017800009cbe000294be007800900060
:100fe000008044006004980081c7b30008007800c6
:100ff0004d030700230037001480e900000a780041
:101000001000780060049800580990000200e00089
:1010100002003d008efd0700090037008000eb0054
:10102000f3030700800078000000e00003003200b6
:1010300068009000008050000100370058089000c0
:10104000100c98000f0037006e01440092007800e9
:1010500050c2b30080f178000109e80009003700b0
:10106000ee00440011007800808144000a427800bc
:101070008008e8000a04e00001003a0054c2b3000e
:10108000844978000000eb004f0578004f04be0053
:10109000000006000400fa00889fbe008a9fbe0080
:1010a0008c1f78000004780001067800700890001a
:1010b000f8009000010050008808900001005000e6
:1010c0009808900001005000a8089000010050000e
:1010d000b808900001005000c80890008105500039
:1010e0000002220090bf9f0000032300a0bf9f00ca
:1010f000081090000028a30018003a000b00e00040
:10110000160034000b0578008a047800e20f5500c1
:1011100001003600290020000900e0000c00340026
:1011200058009000c801900009017800ee80570037
:1011300003000100500498008080eb000000e000f4
:101140009c0032006808900009004000600c980084
:10115000090555004240a900ebff3c0078019000d2
:101160000200e0000c00340058009000c80190001c
:101170008c00780003000100500498008080eb0090
:101180000000e0008b00320068089000f80090003a
:1011900001004000600c9800080890000000e0008a
:1011a00016003400000578008a047800e20f55002c
:1011b00001003600290020000900e0000c00340086
:1011c00058009000c801900009017800ec80570099
:1011d00003000100500498008080eb000000e00054
:1011e000740032006808900009004000600c98000c
:1011f000090555004240a900ebff3c00180990008a
:101200000200e0000c003400e8009000580090005c
:10121000c801900003000100500498008080eb009a
:101220000000e00063003200680890009808900019
:1012300001004000600c9800280890000000e000c9
:1012400016003400000578008a047800e20f55008b
:1012500001003600290020000900e0000c003400e5
:1012600058009000c801900009017800ec805700f8
:1012700003000100500498008080eb000000e000b3
:101280004c0032006808900009004000600c980093
:10129000090555004240a900ebff3c0038099000c9
:1012a0000200e0000e003400e800900018089000f2
:1012b0008080400058009000c801900003000100a9
:1012c000500498008080eb000000e00039003200fc
:1012d00068089000b808900001004000600c980079
:1012e000480890000000e000160034000005780077
:1012f0008a047800e20f5500010036002900200022
:101300000900e0000c00340058009000c801900073
:1013100009017800ec805700030001005004980098
:101320008080eb000000e00022003200680890009e
:1013300009004000600c9800090555004240a900d2
:10134000ebff3c00081090000028a30018003200ba
:101350000b00e000160034000b0578008a047800ca
:10136000e20f550001003600290020000900e000ce
:101370000c00340058009000c8019000090178006a
:10138000ee80570003000100500498008080eb00bd
:101390000000e000070032006808900009004000eb
:1013a000600c9800090555004240a900ebff3c0085
:1013b0008000eb00010078004f0678004f05be006a
:1013c0004f04be000080fa0000000600ef04b000e9
:1013d000889fbe008a9fbe008c9fbe008e1f780033
:1013e000c0af9f00a1df9f0060fa2f000f004000f8
:1013f000e0af9f00cfaa97005503be004502be0094
:1014000084af9f0095af9f00a6af9f00b7af9f002e
:1014100010c6b30080cf50001600320010c4b300d5
:1014200080cf5000130032004fab97005608900059
:101430000000e00003003d0060002000500b980019
:101440000c0037000000e0000a003a0070c6b3004c
:10145000afdb970080cf53000300320070c4b300ad
:1014600080cf530003003a0010002000cfa897005f
:10147000d0089800cfa89700e2fc2f000280470018
:10148000e402070080017800e20f500014003a00e7
:10149000cfa99700e3009000300020009009980049
:1014a00010c6b3002fda9700804f52000a003200b6
:1014b00064404000804f5200070032000040e800c6
:1014c000804f520004003200e21921000040e80081
:1014d000804f520017003a00221a210015003700f1
:1014e0000000e00018003400cfaa9700e50090004b
:1014f00030002000900a980010c6b3002fdb970040
:10150000804f53000a00320064404000804f530077
:10151000070032000040e800804f53000400320012
:10152000621a21000040e800804f530001003a0099
:10153000a21a2100b258780002007800b058780052
:1015400090487800f201370014c6b300afdb970073
:1015500084cf53000300320010c4b30080cf530087
:1015600010003a004fa89700ec00400011017800ed
:1015700000c3b300005978008208e80080c7b300b8
:10158000afd8970084cf50000100320080c5b3006f
:10159000004978004fa99700720090000080e80091
:1015a000700198000300e00003003a008006eb00a1
:1015b000fda79f00d001370011c6b300afd9970037
:1015c00081cf51000300320010c4b30080cf51001e
:1015d000ad003a00ee1a21002fda9700814f520039
:1015e00001003200fe1b2100cfaa97005508900091
:1015f0008006e8000000e00001003d001d02200020
:101600000d06e8004fab97003604be002605be006d
:101610006022b8006033b8000fa897009fa8970019
:101620002fa99700bfa99700220a07000000e00039
:1016300001003d000bf0a20088af9f0099af9f0012
:10164000aaaf9f00bbaf9f007fa09700640050002f
:10165000f0a79f00efab9700805beb00e7af9f0028
:101660003f003700c20120000300200001fd2f00d1
:1016700001804700950207000faa97009faa9700d4
:101680002fab9700bfab9700f4af9f0085b79f00cb
:1016900096b79f00a7b79f000400be000601be00da
:1016a000090a07000004be000005be0067065600d8
:1016b0004240a9000c0034002f0a07000002be00bf
:1016c0000203be007fa897008fb097001fb197005c
:1016d000afb197002b0a070080af9f0091af9f002a
:1016e000a2af9f00b3af9f00efaa9700e78242002e
:1016f000e5af9f0070002000e00f5400e08f5c0019
:101700000d003400600020006fab97006f63650030
:10171000e6af9f00cc5bdd004455de000a85730018
:10172000c4ddde00e00f5500e08f5d0002003400f4
:101730000000e900f4ff3b000000e9000500330071
:10174000efa897008060eb00e1af9f000000e90088
:10175000fbff3b006fa9970067014100e2af9f00cc
:101760000c00e000090034006022b8006033b800cb
:101770000fa897009fa897002fa99700bfa99700cf
:10178000020a07000000e000b6ff3c00efa9970046
:1017900064fa2f000f024200048051000006e900a5
:1017a00075fa2f0085824700e5af9f008d0f560028
:1017b00001003d008c0678000d00e0002b00350094
:1017c0008c8f560005003d006fab970066c07e0011
:1017d000f2c0b300e74f500001003c000041eb00b5
:1017e0008d00e900efab970067c07800824f500092
:1017f00006003a008d06e9008100e900efa9970094
:1018000063c07800824f5000faff3200ef4f510062
:1018100004003a006faa970064c078000040e80016
:1018200000f278000100e00007003d00efaa9700f9
:101830008502e900e5af9f008d06e8007fa09700d4
:1018400064004000f0a79f008d00e900070033000e
:101850006fab970066c078000000fb006e40780018
:1018600000f378008100e900f9ff3b00cfab97005f
:10187000570890000000e0001f013d000d00e90046
:10188000d00b98001c0137000fac97009fac97005d
:101890002fad9700bfad97006022b8006033b8004d
:1018a0000800be000a01be00820907000000e00037
:1018b00005003d000bf0a20088af9f0099af9f008c
:1018c000aaaf9f00bbaf9f007fa09700725927006f
:1018d0000280b900026a280013002000b009070046
:1018e000e4005000f1a79f001d003b006380100042
:1018f000c1ff2f00010460000800ea00f0a79f006c
:101900008004eb000800e000470034000808a30052
:101910000e0032006848b8000206210002004000b4
:101920003002be002003be000fa897009fa89700ba
:101930002fa99700bfa99700a809070080af9f00b3
:1019400091af9f00a2af9f00b3af9f000884d1006a
:101950008904e8000800e000ecff3c00320037009a
:101960000100e000300034006022b80006002000d2
:1019700007ff2300b4b79f00c5b79f00d6b79f00ed
:10198000e7b79f00c0ff2f0000806000f0a79f0016
:10199000000478008004eb00160034000808a3005f
:1019a000100032006848b80005062100050040001c
:1019b0003002be002003be003fb09700cfb09700ba
:1019c0005fb19700efb19700840907000002be00e5
:1019d0000203be00b4b79f00c5b79f00d6b79f00f3
:1019e000e7b79f000884d1008904e8000800e00000
:1019f000eaff3c003fb29700cfb297005fb3970079
:101a0000efb397000fa897009fa897002fa9970002
:101a1000bfa99700e609070080af9f0091af9f0024
:101a2000a2af9f00b3af9f004fab9700d6089000c6
:101a300060c6b300afdb970080cf530004003200d4
:101a40006687400060c4b30080cf530003003a00b3
:101a50007fa09700008040006a074000f30f570006
:101a6000010034003e01200000c3b300efa897003e
:101a700080587800e1af9f003a0037000800be00b0
:101a80000a01be00100907000006be00f0b79f0063
:101a900081bf9f00680757004240a9000e00340034
:101aa000350907000002be000203be000800be00a8
:101ab0000a01be00330907006022b80046782d00f5
:101ac000771924004509070080af9f0091af9f0060
:101ad000a2af9f00b3af9f00efa99700e88141003c
:101ae000e3af9f0088002000e00f5600e08f5e000b
:101af0001100340078002000a20020000300200024
:101b00007fb097008fb89700e60107006faa970093
:101b100005c3b30005624100e4af9f00f0b79f002a
:101b200081bf9f00e00f5000e08f5800020034009a
:101b30000804e900f0ff3b000804e9000600330058
:101b400000c3b300efab970080637800e7af9f005e
:101b50000804e900faff3b006fa897006800400006
:101b6000e0af9f000e00e0000b0034000fac9700c8
:101b70009fac97002fad9700bfad97006022b800d3
:101b80006033b8000800be000a01be00ff0807006d
:101b90000000e000b9ff3c00efa8970062fa2f00b8
:101ba0000f014100028050000007e90073fa2f0086
:101bb00083814700e3af9f007fa09700670040004c
:101bc000f0a79f0001c3b30093cf10000a003a00b2
:101bd0000e07e9007fa097000000e900f0a79f0032
:101be0006faa97000402e800e4af9f001442780057
:101bf000814f5200f6ff3200cfaa9700d50890001f
:101c000060c6b3002fdb9700804f53000300320003
:101c100060c4b300804f530004003a007fa09700d7
:101c2000008040008006e8000a0037008001eb00d9
:101c300050c6b300afdb970080cf530003003200e3
:101c400050c4b30080cf530001003a0013002000bd
:101c5000838640008d0f570001003d008e067800fe
:101c60000d00e000240035008e8f560006003d0078
:101c70006fa89700e0c07e0092c3b30040c3b300da
:101c800080cf500001003c0002c3b3008d00e9008a
:101c9000efa9970063c07800824f500006003a0019
:101ca0008d06e9008100e9006faa970064c0780002
:101cb000824f5000faff320090c3b300804f5100b2
:101cc00004003a00efaa970065c078000040e800e1
:101cd00080f278000100e00007003d006fab970044
:101ce0000603e900e6af9f008d06e8007fa097009d
:101cf0000000e800f0a79f007fa297008d01780008
:101d00006fa99700afd897004fa897007c010700f4
:101d10004f0778004f06be004f05be004f04be00bf
:101d2000ef04b100000006006f02b000889fbe0003
:101d30008a9fbe008c9fbe008e1f780080067800b0
:101d4000d0132100b0b79f0080c5b30080cf5000f2
:101d500002003200c2122100b2b79f0083002000af
:101d6000c3b79f00f0c6b30080cf50000a00320016
:101d70006940400080cf500005003200a4002000e0
:101d8000c4b79f0080c5b30080cf500002003a0066
:101d900000012000c0b79f008e0120003d04be005e
:101da0002d05be0040c6b30080cf500003003200b6
:101db0006540400080cf50000a003a00e00f540018
:101dc000e08f5c00e00f5d00e08f5d0005003d00ee
:101dd0000800be000a01be004f0907000205be0050
:101de0000004be00e00f5400e08f5c00e00f5d00d7
:101df000e08f5d0003003a005d0890000000e00005
:101e00000c0032007e012000cfb097000102780064
:101e1000cfa2de0005037800860378000800be002c
:101e20000a01be00d20907003fb297006440780063
:101e3000d0e79f004fb09700cf80de00010178000f
:101e400082017800d0b79f00e1b79f00f2b79f00f2
:101e500083bf9f000203be000002be000800be0058
:101e60000a01be00bb090700809ebe008296be002c
:101e7000e00f5000e08f5800e00f5900e08f59004c
:101e8000220034000e00e000200034003d00be00bf
:101e90002d01be005fb29700efb297007fb39700ad
:101ea0008fbb9700b60907000205be000004be0004
:101eb0000e07e900e1fc2f008f804000010647007b
:101ec0005fb29700efb297007fb397008fbb970088
:101ed0000800be000a01be005d0a07001d001000d8
:101ee0003fb19700624e7800889ebe008a96be0081
:101ef000e00f5400e08f5c00e00f5d00e08f5d00bc
:101f0000020034000e00e000e0ff3c00cfb197007b
:101f1000e88f510010003a000d1090000038a30027
:101f20000d003200f70f570006003e00e4fc2f00c2
:101f30000e024200e4c07f0000c3b30080cf500017
:101f4000050032000e07e90000c3b300e1fc2f00da
:101f50008e80400080f07f0078011700920e98007c
:101f60006d009000e3fc2f008f8141008e804100c6
:101f7000bef907001d0e90005d089000800f56000e
:101f800006003d000c005000800e98000d109000df
:101f90000040a100801698000f0037000000e0000c
:101fa0000d003d000d10900074006000f00f500017
:101fb00009003a007d089000fd00900001005000eb
:101fc0008d089000010050000c0750004240a9000d
:101fd000010034008e0e98004f0778004f06be00b7
:101fe0004f05be004f04be006f02b10000000600a6
:101ff0000200e0000500320090cf10000400320023
:102000000000e8000201e900fbff3a000000eb00dd
:1020100000000600889fbe0080047800010478005c
:10202000310090000000d0004501de00f07f20006c
:10203000800f510010003a00800ceb00310090003e
:102040006f00600008003a00210090000000e000ee
:1020500005003a00110090000000e00002003a0084
:102060001100e000020032002000200015003700bf
:1020700010002000130037000200e00005003c00c3
:1020800001007800cf010700000178000000e000a7
:102090000a003c0038009000f100280001006000b8
:1020a00001fe2300010070003004980020c02f00c2
:1020b000800c41000080eb0002003700800ceb0038
:1020c0000000eb004f04be0000000600881f7800ef
:1020d0008a9fbe00000478000205be003001900017
:1020e0000200d000c500de00f07f2000808f50008d
:1020f0000c003a006f00610008003a0028009000d0
:102100000000e00005003a00180090000000e00028
:1021100002003a001800e0001c00320020002000fd
:102120005d0037000100e00006003a00080078007a
:10213000a4010700800078000000eb000100e0002f
:1021400055003c006108b9000a0540008b85480035
:10215000e07f2000800f5500e08f5d000d0034000f
:10216000380090006022b8000600200007ff2f0012
:102170000000e000030035006022b80006002000e7
:1021800007ff2700049cbe000694be00100020003c
:1021900041003700b8009000e00f5500e08f5d006f
:1021a00005003400f000280000806000c450dd000d
:1021b00001007000360037000000280080826000b7
:1021c0006f8060000040a000300498006105550059
:1021d000e0855d00c0fc2f00f1ff2f00800f55004f
:1021e000818f5d0006003d00350498000000eb0083
:1021f0002004980010049800000ceb002600370023
:102200000a027800f00f45000b003c001800900017
:10221000000c78002800900010049800380090000e
:10222000200498000000eb00300498007002420087
:10223000f00f4200f5ff34000402ea001200320001
:10224000180178000411de00f0011200180090005f
:102250008300dd00010c71000400de002801900005
:102260008310dd0001007000100498000411de00ee
:10227000380090008301dd00030171002204980002
:102280000400de0030049800380090000500700063
:10229000300498000080eb004f05be004f0478002a
:1022a000000006000400fa00889fbe008a9fbe005e
:1022b0008c9fbe0080bf9f0091bf9f000206be00a2
:1022c000370707000001be000004be000c00be007e
:1022d000840907000fb997009fb9970000055100c6
:1022e000818559000800be000a01be004f06be00ed
:1022f0004f05be004f04be000080fa00000006003b
:102300000a00fa00889fbe008a9fbe008c9fbe0014
:102310000004780001457800820578008304780085
:10232000040678000300e00002003c0019002000d1
:10233000cb1e210060c6b300804f55000e00320056
:1023400060c4b300804f55000b00320070c6b3006c
:10235000804f55000300320070c4b300804f550019
:1023600083003a00e40f46008100350058089000d1
:10237000800f56007e003d000c06e80060c6b300ea
:10238000804f55001000320060c4b300804f5500ec
:102390000d003200081090000038a30004003a003d
:1023a00058089000808f540001003d00590c98009f
:1023b000580890000c005000500c980002003b00a0
:1023c0000000eb00500c98000c00e00027003c00df
:1023d000f2014400130178006800900001c3b300cb
:1023e000017079000201e800820978005808900025
:1023f0000000e00003003c00081090000038a3003b
:1024000004003200e8009000e0c2b3008070790060
:102410008209e8000c00ea00d8089000808f500084
:1024200001003d000106ea000c00ea00200c9800c3
:102430000c804000500c9800890f500001003d00b6
:102440008004780068009000980890000100400027
:10245000390c9800090178008b00780083f8070098
:1024600058089000090050001a003700e80090005a
:10247000180890008c8f540018003d000080400028
:10248000090178008b00780078f8070018089000a0
:1024900009014000120c980009005600200c980019
:1024a000580890000000e00003003c000810900075
:1024b0000038a30006003200e8009000e0c2b3003c
:1024c00080707900380890000000e800300c980017
:1024d00058089000400c9800a3003700008040008e
:1024e0000c0178008b00780060f807001808900055
:1024f0000c004000100c98008c8454005808900088
:102500000000e00003003c00081090000038a30029
:1025100006003200f2014400930078006801900048
:10252000e0c2b30000f178008109e800580890008b
:10253000890f500001003d00800478006800900081
:1025400098089000010040008c8045000901780047
:1025500046f807001808900009004000100c980089
:102560005808900009005000200c98007e003700a9
:1025700070c6b300804f55000300320070c4b30032
:10258000804f550014003a0058089000808f540086
:1025900004003d00081090000038a30001003a003c
:1025a000590c9800580890000000e900500c980061
:1025b00002003b000000eb00500c980051c6b30035
:1025c00070c6b300804f55000100320051c4b30003
:1025d000014578000900370010c6b300804f550050
:1025e00002003a000ac7b3000400370010c4b30069
:1025f000804f550001003a000ac5b300f2014400c3
:1026000013017800680090003b7079000201e80037
:1026100082097800580890000000e00003003c00a8
:10262000081090000038a30004003200e800900079
:10263000e0c2b300807079008209e8005808900079
:102640000000e000100034008904e900890f500008
:1026500001003d0080047800680090009808900018
:1026600001004000090178008b007800fff70700a7
:102670001808900009004000100c980058089000bd
:1026800009005000200c9800e80090001808900005
:10269000808540008a5d78008b06e8000c00e00031
:1026a00004003500b0c2b300804d78008d0578007d
:1026b00004003700d0c2b300804d78008d0578004b
:1026c0000c06ea008004eb000c00e0000900340076
:1026d000a10020000c0078008d00070076815400d6
:1026e00001f17f00000678008904e8000000e000a6
:1026f000f7ff3c00e18f540009003c0050c6b300d6
:10270000804f55000300320050c4b300804f550085
:1027100003003a0000c3b300805e78008d057800a6
:102720000900e00002003a0000c3b300805d7800b9
:102730000900e000070034008904e900f680540035
:1027400061c07f0002c3b300825d40000900e00069
:10275000f9ff3c00680090009808900001004000dc
:1027600000805500300c9800081090007400600044
:10277000f00f50000e003a0078009000980890008a
:1027800001004000a808900001004000b808900037
:1027900001004000c80890008100400078089000c7
:1027a000808f500002003d0001005000000c980096
:1027b0004f06be004f05be004f04be000080fa0069
:1027c00000000600000278003000900001002800a0
:1027d00001036000150020006f00600030029800c7
:1027e00008003a00240090000000e00005003a00d4
:1027f000140090000000e00002003a001400e00025
:102800003e003200340090000000e0000b003a006f
:1028100024009000300298001400900020029800dc
:102820001400780010029800000aeb00f0825200b9
:10283000340090000000e000f5ff3200340090000a
:10284000ef0f500014003e008001d000a400900063
:102850004f08de0080817100330298008100d000b3
:10286000140190004f10de0080807000210298005b
:102870000201d000940078004f08de0000017100d2
:1028800012029800010ad0008502e90003007800d6
:10289000ef8f5100ecff3600b4019000ff8f510024
:1028a000130036001401d10014009000cf00dd00a9
:1028b000010a71000000d100a40090004f09dd0062
:1028c00002007000100298008100d1004f18dd0056
:1028d00080807000210298000300d100300298002f
:1028e0008502e80080017800ff0f5000edff3e00f8
:1028f000340090006f0060003002980034009000b7
:102900000600700030029800050078000000060004
:102910000101780000027800110009000200d800cf
:102920000002fd000491b900820250000400be00c4
:10293000000006000c02e20004003d000f42ab0064
:10294000020032000f02ab00feff32000040da004e
:10295000feff3700889fbe00800478009c11e200d3
:1029600005003a000000eb00100007008080eb003b
:102970000000e0000a003500e88c80008800780044
:102980000900e000060032000900440007000700cb
:102990008080eb000000e000010035008800780036
:1029a000010078004f04be0000000600800078009f
:1029b0000001eb000000e00003003a00e01e2100ef
:1029c000e08c880006003700e03e2100808f500038
:1029d00002003e00e18c8800010037000081eb001e
:1029e0000200780000000600889fbe008a9fbe009b
:1029f000010578000100e0000400350008003c00fb
:102a00000000e000200032000500370060001000e8
:102a1000e080180002003b0001f02c001a00370093
:102a20000004be006011b8006b0920000982cf00cd
:102a3000020039000882cf000441b0006942520010
:102a40000e00320008003b008281710061016400c9
:102a50008904d1000884d3008b05e8000442e80013
:102a6000f9ff3a00050037000804440089844c004f
:102a70008b05e9000442e900fbff3a00520207001f
:102a80000af0a70001f0a0004f05be004f04be00f1
:102a900000000600f4ff2f0071023700889fbe007f
:102aa0008a9fbe008c1f7800880207008f023300c7
:102ab00003866c006450e100240032006420e100d1
:102ac000270032006150e100220032006120e10065
:102ad000210032008b854200eb07b1000134b800c1
:102ae000003ab8000804420089844a00013ab8005c
:102af0000030b8008880400009014a00040033001b
:102b00000000400081804800020149008b05e90077
:102b1000c909dd00830170000100320013002000ac
:102b2000c814de004814dd004709de001200b200c0
:102b3000c808de00088470002302070001f0a1002d
:102b40000cf0a70001f0a000710237006120e10045
:102b5000730232000801be000200be00f7ff37001a
:102b60006150e100fcff3a006d023700889fbe0013
:102b70008a9fbe008c1f7800540207005b0233005e
:102b800003866c006450e1002e0032006420e100f6
:102b9000330032006150e1002f0032006120e1007b
:102ba0003100320085855500eb07b0000900200098
:102bb00008042000050037000804440089844c0004
:102bc0000a0031000603430087834b0000015300d5
:102bd00081815b00f8ff33000203be000800a00003
:102be0000804440089844c00f6ff3900c639dd0032
:102bf0008301730001003200130020008904d1001a
:102c00000884d3000998a300050032000800a7003b
:102c10000300a0008904d1000884d3008b05e800dc
:102c20008904d1000884d3000001eb000281d200a6
:102c3000e501070001f0a1000cf0a70001f0a000e1
:102c4000330237006420e100350232000801be0083
:102c50000200be00f7ff37006120e10030023200c1
:102c60006000b800f3ff37000000200001f82700e3
:102c7000f0ff37000001be002c0207000470a7001f
:102c800003f0a1006509b100160032000d00350007
:102c90006828e10006003500f0ff2f00f1ff270053
:102ca0000300e00013003b000100280000000500c5
:102cb00000004000818048008502e900fcff3a00e6
:102cc00008003700f88f420002003c008000eb0053
:102cd000000005008100d1000080d3008502e800db
:102ce000fcff3a000300e00002003b00600010001f
:102cf000e08018000000060003f0a200889fbe00dc
:102d00008a9fbe008c1f7800f0010700f701330096
:102d10006450e1004f0032006420e10052003200b4
:102d200003826c0007003b000905d0000306d000b9
:102d3000820f54000c065d000200390002003200d0
:102d400089017800030678008582550004003d0063
:102d50000003fd008103fd008502ea008b8542002f
:102d6000840f720002003b0060001000e080180039
:102d70006011b8000005eb007a28e1000a00390074
:102d800006007800c75ddd00f707b2008780750098
:102d90002d003700828171000a0178006105600012
:102da0008180d1000080d3008502e900f9ff3b005b
:102db000060440008784480002003b0060041400c1
:102dc000e0841c000988a300070032008a8171009a
:102dd00082817100610164008904d1000884d300fc
:102de0008b05e800170037000978a30013003a00ac
:102df0000b00e000130034008b05e90008044400d8
:102e000089844c000a4474000978a3000d003a003c
:102e10000b00e000070034008b05e90008044400c3
:102e200089844c0001003a000b0020000978a300bf
:102e3000f7ff32000001eb000200370082817100d1
:102e40000a017800600107000cf0a70001f0a00063
:102e5000af0137006420e10002003a00838f6c006c
:102e6000af0133000801be000200be00a801370018
:102e70000001eb00c20137000081eb00c001370008
:102e80001400200076013700889fbe008a9fbe0094
:102e90008c1f78000004be00a40107000478a30082
:102ea00026003a006120e1002500320009f8a30065
:102eb00025003a006420e10021003200f507b1004e
:102ec0000508a30002003200000040008180480095
:102ed0006044b80003102000020020000000400001
:102ee000818048000805440089854c000a0541009e
:102ef0008b8549000a0550008b855800030033007c
:102f00000a00be0002047400838474008301d100af
:102f10000281d300830f7100f0ff3a008904d100d1
:102f20000884d3006001490082017800c1adde0051
:102f3000fb07b00024010700750137000960a000fd
:102f40000800be007201370012022000b28c880017
:102f5000f0ff2f00f1ff27006d013700889fbe00b2
:102f60008a9fbe008c1f78005801070010022000c5
:102f700002003b00b08c88005c0137008a006200d0
:102f80006408e10002003a00b08c88006401370058
:102f90006108e100fcff32000800be000304780075
:102fa000f2fe070001f0a100de01070008f0a60014
:102fb000040037000001be0091042400b0fd200091
:102fc0004dff070009f0a70001f0a20050013700f3
:102fd0000c00fa00889fbe008a9fbe008c9fbe0036
:102fe0003a0107000206be00840578000200be0018
:102ff000020020003002070005003a008b02b300f7
:10300000120020002c02070001003a00f8856d0034
:103010000c01be00c60007000800be009b00320085
:103020000b08a3009e003a000df0a7000be0a000e3
:1030300009f0a7000bf0a00009f0a1000801be00f4
:10304000bb0007000bf0a6009500320001003c0019
:103050000bd0a0008acf7500b20033006000b8002a
:103060006250e10099003900a1003e000b28a30046
:10307000a2003a000bf8a300060032000b58a30090
:10308000a70032000801be00a90007000800be002a
:10309000940032000800be002e0207000004be00ab
:1030a000050578000bf0a7000b30a6000bf0a1007f
:1030b0005b079800324f200053f3230070ff070096
:1030c00005003d000800be00120020002e0207008f
:1030d0000004be000a05e9004a0798006150b900e3
:1030e00041fe0700008fbe000c01be006bfe070012
:1030f000e0fe0700300798000100e00002003d00fc
:1031000060001000e0801800f2ff2700820f5000de
:10311000e08f580064003e000c00be00d5fe0700a2
:1031200020079800f2072000820f5000e08f58001f
:1031300005003c0012f82f00f3ff2f00820f500013
:10314000838f580009003d000a00e00003003200b0
:1031500001003c000201ea00020578006000b800ae
:10316000200798003a079800190037003e009000a9
:103170006100b9001cfe0700809fbe000c00be006d
:103180004109dd004811de007208b100ca010700e4
:103190000005be001e01be0040fe07004f01be003c
:1031a000d5fe0700809fbe000c00be000a01be00d5
:1031b000d1fe07001e01be0038fe07004f01be0011
:1031c000cefe07008221270013f3230033fe070001
:1031d0000005be002e0090006100b90002fe07004d
:1031e00001f0a2000c01be00c4fe07000006be00f4
:1031f0000800be00060207000c01be0027fe070003
:103200000a01be00bdfe0700809fbe004a00070005
:103210002e0590000af0a7000a05ea000500370015
:103220000800be000801be001cfe07000004be002e
:103230000c00be000801be000a00a70017fe070030
:103240000006be000a05d100f5ff3a005e019000bd
:1032500002e0a600030037000001be0036000700b0
:1032600042fe07000004be004f00be003f02070000
:103270000801be0009fe07003e019000c2010700e0
:10328000de0590000bf0a70001f0a2004f06be0083
:103290004f05be004f04be000080fa00000006008b
:1032a00025000700f9ff3700270007006000b8007d
:1032b0000bd0a7000bc0a0000be0a7000bc0a20022
:1032c0000bc0a70001f82700f0ff37000df8a3009e
:1032d000020032001e000700190007000bf8a300cf
:1032e000eaff32000b30a70001f0a200e7ff370031
:1032f0000df8a300f9ff3a00f7ff37000801be0000
:103300000b000700e6ff320001003c000df0a200b8
:103310006000b8000df0a70009000700dbff3700d0
:103320000b000700f1ff2700f0ff2f00d7ff370049
:1033300001000700d2fe370001f82300000005005d
:1033400001f82700000005002002200001003700de
:1033500010022000b08c8800000006000001be00b2
:10336000720007000470a70003f0a10003f8a30097
:1033700013003a006509b100100032000900350061
:103380006928e10002003500010028000000050066
:1033900000004000818048008502e900fcff3a00ff
:1033a00000000600f88f4200050035008100d100c2
:1033b0000080d3008502e800fcff3a000000060010
:1033c0008000eb00000005008100200061805500b6
:1033d0000b003d000b00200061fe2f000100e1000a
:1033e0001d00340082817100610164008904d100f4
:1033f0000884d3000000e800faff3a0071002000c2
:1034000061006400030070000200600009003200e7
:1034100061044400e0844c000988a50005003200e6
:103420008b05e8006808e10002003a008904d10039
:103430000884d300f20f20000258e10005003d008f
:10344000c75ddd00f907b2008980750008007800cb
:10345000000006000bf827008b0078000000050034
:10346000889fbe008a9fbe00841f78001700070057
:103470004f00780011003300f0ff2f00838f6c00a5
:1034800006003b00040565000a00a700080037009d
:1034900009f0a6001000200008003700820f540039
:1034a000838f5c00030039001000200001003e0003
:1034b0000000200009f0a7000000ea004f05be0050
:1034c0004f04be000000e000000006000004be0043
:1034d000160007000003be000405be000200be0087
:1034e00012000700844f7500000006000200be00b5
:1034f0006450e100050036006420e100020036005f
:103500000968a30001003a000800be000160a000a5
:103510004f0678004f05be004f04be0000000600b5
:10352000f0ff2f00f1ff2700f9ff3700c70ade0088
:10353000f107b200f50fb20008003200e1cf4200ff
:10354000020032000170a00024000500810f70000d
:10355000010032000408050044000500810f7000de
:1035600002003a00140005008502e9000000400056
:1035700081c04800fcff3b000170a0002400050052
:10358000889fbe008a9fbe008c9fbe008205780087
:103590000004be00e5ff07000800be006420e10053
:1035a0000700390002003a00f1ff2700f0ff2f006a
:1035b0000160a00012022000b28c88005500370084
:1035c0006120e10003003a000b00a70001f823008e
:1035d0005000370001f0a100020021009364240094
:1035e00027fe07000800be0004003500b2fd2000e1
:1035f000930c2400bf0107000004be000005eb008f
:103600000b00a6004f0dde0001f0a1000004be007b
:1036100032982f0023ea230020fd07000001eb0071
:1036200003f023000b00a70003f82300b3fd0700fd
:1036300090fd07000000a7000a00a200eafc0700b6
:103640000b00e000030032000200200003f0230022
:10365000a9fd070001f0a2000006be000200200044
:10366000930424000dfd07000801be00a3fd070020
:10367000809fbe000c00be0022a22a00d3a7230018
:1036800006fd07004f01be009cfd07000004be00c0
:1036900001f0a1000200200003982300f8fd0700bc
:1036a0000800be00190035000001be00fbfc070049
:1036b0000006be00b2c52900e3622300f7fc070044
:1036c00022222b00f3942b008cfd07000c01be007e
:1036d000f2fc0700e273280083c0230087fd070087
:1036e0000c01be00edfc070042aa2a00a3e22b0059
:1036f00082fd07000c01be00e8fc07000801be00c7
:10370000e6fc07000801be007cfd07000a00a700d8
:1037100001f0a2004f06be004f05be004f04be00e0
:1037200000000600889fbe008a9fbe008c9fbe00de
:103730000004be007dff07000800be008906780077
:103740006420e10008003900040032000160a0009c
:1037500012022000b28c88005300370091fc230035
:10376000b0fd20004e0037000006eb0009f0a1007c
:1037700003f82300020020000800be00c0fd07007f
:103780000600340001f82300000020000801be00fc
:10379000f6fc07000004be002c0020000800be005c
:1037a00093e82300320a2300b5fd0700120034001d
:1037b0000801be00d1fd2300703d2b004ffd070026
:1037c0000005be00b3f32300f27a26000800be0015
:1037d000b2fc070003f823000200200046fd0700aa
:1037e0000801be0045fd07000a01be00dffc07001e
:1037f0000004be000c06e8000800be0001f0a100b5
:1038000002002000039823009dfd07000800be0071
:10381000160035000801be00a0fc07000005be0030
:1038200032cd2c0043fb230034fd0700809fbe00f7
:103830001269280003d52b000a00be0097fc070080
:10384000620f210013ef2b002cfd07000a01be00c0
:1038500092fc07004f01be00c4fc07000801be0037
:103860008efc07000801be0024fd07000c00e000ec
:103870000b0032000c10a70001f0a200b2fd2000e6
:1038800093fc23006260e1000400320022a92000c2
:1038900063f023000c10a70063f8230017fd070056
:1038a0000df0a70001f0a2004f06be004f05be00bc
:1038b0004f04be0000000600889fbe008a9fbe0025
:1038c0000003be0019ff07008505780082815200c1
:1038d000020020006220e10004003a00f307b1007a
:1038e000040035007718e100040035000600be0032
:1038f000140037006000b8000f003700f50f2000fb
:10390000faff2f008502d1000a85d3008301e90068
:10391000fcff3b008184620000046500890f740095
:10392000f2ff32008582ea000a85ea0081846200a3
:1039300000046500a4fe070007f0a70001f0a00046
:103940000081eb000200e0004f05be004f04be0006
:10395000000006000003be00f4fe07006220e10044
:10396000020032000600be0005000500e507b100b8
:10397000f107b20004f023008480700007f0a70074
:1039800001f0a000240005000003be00e7fe0700d0
:103990006220e100020032000600be0000000600c6
:1039a00085024100e30f20000328e10005003c00f0
:1039b000a3fe2f000328e10007003d0005002000c2
:1039c00001003700f50f200020022000b08c880095
:1039d0006000b80008003700130020008381520007
:1039e00005003d008100d1000080d3008301e80084
:1039f000fcff3a0005002000c72add00f107b200f5
:103a00008580700007f0a70001f0a000000006000c
:103a1000889fbe008a9fbe008c9fbe00cdff07001e
:103a2000850478000005be006420e10049003e00e6
:103a30006220e10003003200090035000bf8a3000a
:103a4000440032000bf8a3000800320010022000ee
:103a5000b08c8800f0ff2f00f1ff27003d003700f9
:103a600001f82f00000020003a0037003d00070059
:103a7000a1fc07000006be000a00be00324f200075
:103a800053f3230003fc0700060034000c00be00c3
:103a90003400070098fc07000006be000a00be00c4
:103aa000020037008904e9000c00be002d00070069
:103ab000fafb07002b00070090fc07000001be0086
:103ac0000c00be0029fc07000005be000001be007e
:103ad000f2fb07000006be00a2f32300430d2c00fa
:103ae00086fc0700809fbe000c00be00d2e32700ca
:103af000d3f02b00e9fb07004f01be001bfc0700c1
:103b00000006be000a01be00e4fb07000a01be0079
:103b10007afc07000006be006148b900b2fb07004e
:103b20000005be0032082800e3952b00dbfb0700f0
:103b30000c01be0071fc07000006be000a00be00ba
:103b40000200280013f32300d4fb07000c01be0081
:103b50006afc07004f06be004f05be004f04be00c2
:103b60000000060003f0230002000500889fbe004d
:103b70008a9fbe008c9fbe000004be006bfe070043
:103b80000800be006420e10048003e0055003200fd
:103b900072212700132b2400befb070047003c00c6
:103ba0000800be00c2ec2800e32c2c00b4fc070087
:103bb000470035000800be0001f0a100020020000f
:103bc00003382300aefc0700430035000800be00a8
:103bd000b2a32a0083fb2300b0fb070002002000f1
:103be00003f0230001f0a70003f0a00043fc07004e
:103bf00020fc07000005be007bfb070001f0a200cf
:103c00000006be000200280013f32300a3fb0700f8
:103c10000801be0039fc0700809fbe000c00be00fa
:103c200032082800e3952b009cfb07004f01be00e3
:103c300032fc07000006be000001be0097fb070033
:103c4000809fbe004241250083b8230093fb0700fc
:103c50000200200003e8230028fc07000c01be003e
:103c60008efb07000006be004f00be00f2f92b00dd
:103c7000c3d4230089fb07000200200003f02300c7
:103c80001efc07000c01be001bfc07000001be006b
:103c90000c00be00b5fb07000200200003f023006b
:103ca00016fc07006101450037ff07004f06be0004
:103cb0004f05be004f04be000000060001f82700bb
:103cc0000000200022022000b28c8800f7ff37009d
:103cd0006000b800fbff370001f82300000020005f
:103ce000f2ff370009f8a300f0ff32006000b800cf
:103cf000eeff37000400200000003700889fbe0060
:103d00008a9fbe008c1f78004f26dd00effd070064
:103d1000f6fd33006120e100430032006250e10013
:103d200041003e003e0039006420e1003c003200ca
:103d3000058255000f003b000402e80038003a00fd
:103d4000800f5300818f5b00350034000800be00f7
:103d500003f0a10001f0a60003f0a0000cf0a70002
:103d6000e6fb0700eafd37000603430087834b00ac
:103d70000c4646000005530081855b0002003300bd
:103d80000a03be000c00a0000402e900f6ff3b009d
:103d9000850578000602430087824b0004003a0044
:103da0006000b80009f0a70001f0a000d8fd3700be
:103db0000002520081825a000704e0000400330030
:103dc0000603430087834b008b05e900faff3700a9
:103dd000090578000604be000203be006011b800a9
:103de00079fd0700e00f5200e08f5a000700350010
:103df00002003c000c08a300040032000601be00d3
:103e000003f0a0000cf0a700bcfb07000a856800c7
:103e100001f0a1000af0a70001f0a000bcfd3700ee
:103e20000800be00bafd3700100220000cf0a6000a
:103e3000b08c8800bafd370081037800bbfd070015
:103e40000001be006000b8000478a30013003a002f
:103e50006220e10015003e000d0039008301d10011
:103e60000281d3008180d3008301d1000281d3007d
:103e70008180d3008301d1000281d3008180d300ef
:103e80000538b000c42add00f300b200838172005f
:103e900007f0a70003f0a00000000600f3ff2700d2
:103ea000f2ff2f006110b900fbff370003ff27006e
:103eb000f7ff37008f1fd100900207008f87e900be
:103ec0000000e000000006001400fa00889fbe0019
:103ed0008a9fbe008c9fbe000004be000205be008b
:103ee000680047000a90be000890be00ac020700c0
:103ef0000070a7000bf0a100304320009e0290004c
:103f000080825200b0fe2f000028e10011003d0029
:103f1000b0fc2f000028e100150034001e099000bd
:103f20008e0890007e0090000501b0000201d100d3
:103f30008180d3000080d3008502e800fbff3a00b7
:103f40000b00e000d1023b0060001000e080180090
:103f5000ce023700f0ff2f00f1ff27000b00e0003a
:103f6000ca023b000100280000002000c702370001
:103f70006000b800c50237004f89de00820178007a
:103f8000c702370007f0a200fc023700809feb0059
:103f90005a0207008f87e9000000e00000000600d9
:103fa000839f68000100e00002003d0060001000f7
:103fb000e08018000300e00002003d0060011100f5
:103fc000e08119006a0307004f00e00002003b0097
:103fd00060001000e0801800000006002800fa00d1
:103fe000889fbe008a9fbe008c9fbe0003866b0028
:103ff000920207000028a30064003a000128a300f1
:1040000067003a000008a30062003a000108a3001c
:1040100065003a001e009000be0890008106400036
:10402000ed3fb100f4805700ee019000111ab80086
:104030008e099000311bb8009e099000311cb80019
:10404000511db800f485570046000700fe0190009e
:104050003a0007008b85e8003e0007008e099000bb
:1040600040000700ee019000340007008b85e80057
:10407000380007008e099000400007009e0990005c
:104080001b18b800890440000a854800fe01900012
:10409000340007008b85e80038000700ee0190002f
:1040a000300007008e0990001b18b80089044000fa
:1040b0000a8548000a98a30008003a00040242005a
:1040c00085824a0006034b0087834b0008044c009e
:1040d00089844c000a054d008d06e9008482720037
:1040e000850273004c3add00850272000100320047
:1040f00015002000443ade001400b2004538de000e
:10410000cb45dd000b007000c540de00cb4ddd006f
:104110008b8070004549de00cb55dd000b0171003e
:10412000c551de000d0378002103070003f0a10054
:104130000cf0a70003f0a000540237001b18b800d1
:104140008502400006834800e0834b0060044c0079
:10415000070037001b18b80006034000878348009b
:10416000faff37001b18b800870340000884480096
:10417000e0844c0060054d00000006001b18b800ec
:104180000804400089844800faff37000108a300b2
:104190003b023a005800be005801be00e3ff370062
:1041a0000008a30036023a0009047800f9ff37003e
:1041b0002800fa00889fbe008a9fbe008c9fbe0028
:1041c00003866b001d0207006400e100440032001a
:1041d0006408e1004a0032006100e100460032005c
:1041e0006108e10049003200ec0647006000b800b9
:1041f0003d02be003d03be00f48657006011b800ca
:104200003d04be003d05be007d0320000b003700cd
:104210000000a0008d06e9001300320004024200f5
:1042200085824a0006034b0087834b000000400054
:104230008180480002014900838149000802520040
:1042400089825a000a035b008b835b00f0ff3b000e
:104250000802420089824a000a034b008b834b000c
:104260008d06e900edff3a008482720086827200ba
:10427000f707b200878272000100320015002000ab
:104280001e0490003e0b900006035400e63fb00071
:104290000368a300070032000000a7000500a0008b
:1042a0008301d1000281d3008180d3000080d3003c
:1042b0000603e8008301d1000281d3008180d3008e
:1042c0000080d3000002eb000482d200b802070095
:1042d00003f0a1000cf0a70003f0a000eb013700f1
:1042e000640247006408e100e50132003400be00ca
:1042f0003401be00f6ff37006108e100e001320042
:104300006011b8006000b800f1ff370003ff27001c
:1043100002002000fbff370060001000e080180062
:1043200060011900e081190000000600881f780074
:10433000000478005001be004000be0000004200b2
:1043400081804a0002014b0083814b00009cbe002b
:104350000294be00dc00070003003100480090001a
:104360000000e800400498004f04780000000600b8
:10437000889fbe00000478008004eb005001be005e
:104380004000be00d00007000100310019002000ed
:1043900004005000858058000601590087815900ab
:1043a000009cbe000294be0048009000090050002e
:1043b000400498004f04be00000006001200fa00fe
:1043c000889fbe008a9fbe008c1f78000205be0039
:1043d0000004be00f4b79f0085bf9f0096bf9f00fa
:1043e000a7bf9f000000eb00e0b79f00d0b79f0081
:1043f000c0b79f00b0b79f00a0b79f000006eb00ba
:104400005fb197006fb097008000d0000000e0001f
:1044100015003d00e1b79f00010078000200e000b8
:1044200001003d000000a000ac00070001003d00bd
:104430000000a000af00070001003d000000a00048
:10444000b200070001003d000000a000810007004d
:1044500001003d000000a000b20007007c80570072
:10446000b2ff070014003700e1b79f000100780099
:104470000200e00001003d000000a00097000700de
:1044800001003d000000a0009a00070001003d006f
:104490000000a0009d00070001003d000000a000fa
:1044a0006c00070001003d000000a0009d00070017
:1044b0007c805700aeff07006fb097000000e0005f
:1044c0000700350010002000010020006011b80036
:1044d00008047000898470000a0571008b857100e2
:1044e0000c06e800f0032000800f5600c4ff3400e3
:1044f0006fb097000000e00006003d007fb297001b
:104500008fba97001fbb9700afbb97007c80570006
:1045100086ff07000802be000a03be006fa89700ce
:104520000000e00004003a002fb29700bfb29700ed
:104530004fb39700dfb397000400be000601be0032
:104540004f0678004f05be004f04be000080fa0001
:1045500000000600881f780018002000881f7800df
:1045600096ff07008f87e9004f04780000000600df
:10457000801feb0091ff07008f87e9000000060015
:104580000800fa00889fbe008a9fbe008c1f78003a
:104590006e00070005003d004300070030000700e3
:1045a0000c003d00330007000b003700e00f520005
:1045b000e08f5a00e00f5b00e08f5b0006003d00db
:1045c0000400be000601be0053ff07000205be0046
:1045d0000004be001c0020002c000700ddff0700c7
:1045e0000c00e000010032004bff07004f0678008e
:1045f0004f05be004f04be000080fa000000060018
:104600000800fa00889fbe008a9fbe008c1f7800b9
:104610004e00070002003d001c00200022000700a1
:104620000f00070001003d001200070017000700ff
:10463000cfff07000c00e0000100320036ff07004a
:104640004f0678004f05be004f04be000080fa0000
:104650000000060090b79f000100d00080b79f00c7
:10466000e00f5400e08f5c00e00f5d00e08f5d0024
:10467000000006000800be000a01be0026ff070079
:104680000205be000004be00000006000802be00d5
:104690000a03be005fb09700efb097007fb19700ac
:1046a0008fb99700000006001bff070001000700fc
:1046b00000000600b0b79f00c1b79f00d2b79f00af
:1046c000e3b79f00000006000400e1000588e10058
:1046d0000690e1000798e10000000600c0b79f00c7
:1046e0000200d000b0b79f00afb097000100e0001b
:1046f00000000600b0b79f000100d000a0b79f00e7
:104700009fb097000100e00000000600a0b79f00e6
:104710000100d00090b79f008fb097000100e0002b
:104720000000060080b79f000804d0008984d200f2
:104730000a85d2008b85d2005fb29700efb2970056
:104740007fb397008fbb970000000600d9ff0700da
:104750000605be000404be000006eb00e00f50009a
:10476000e08f5800e00f5900e08f5900000006006c
:104770000800fa00889fbe008a9fbe008c1f780048
:10478000f0b79f0081bf9f0092bf9f00a3bf9f0013
:104790006044b8006055b8000006eb000408a300b0
:1047a000080032007fb097008fb897001fb99700bc
:1047b000afb9970008044000898448000a05490001
:1047c0008b8549008703d1000683d3008582d300ff
:1047d0000482d30010002000010020006011b80006
:1047e00008006000898060000a0161008b8161001f
:1047f0000000e000070032006000b8000200200066
:104800000300280004027000858270000603710016
:10481000878371008b05d1000a85d3008984d3007a
:104820000884d3000c06e800f0032000800f560037
:10483000daff34000400be000601be004f06780017
:104840004f05be004f04be000080fa0000000600c5
:104850000800fa00889fbe008a9fbe00170007006c
:104860000605be000404be00e00f5200e08f5a00af
:10487000e00f5b00e08f5b0008003d000400be001d
:104880000601be00a4fe07000205be000004be0033
:104890000f000700a0fe0700080007000802be0086
:1048a0000a03be000a000700b1ff07004f05be0063
:1048b0004f04be000080fa0000000600e0b79f0031
:1048c000f1b79f0082bf9f0093bf9f0000000600ca
:1048d0006fb09700ffb097000fb997009fb997008e
:1048e00000000600020ab900001bb9000200b8006f
:1048f000810042008100430000000600889fbe0046
:104900008a9fbe008c9fbe000404be000605be0048
:10491000809fbe00829fbe00510107000406780000
:104920000800be000a01be004d01070084067800a1
:104930004f03be004f02be008d4f76007fb0970040
:1049400013003300f0ff2f008b8f6b0006003b003d
:104950000d0666000c00a7000a00370007f0a6004d
:10496000100020000a003700880f5200898f5a007b
:104970008a0f5b008b8f5b00030039001000200062
:1049800001003e000000200007f0a7000000ea0040
:104990004f06be004f05be004f04be0000000600db
:1049a000800078005002be005003be004439de0093
:1049b000f700b200f37f200003016100090032001c
:1049c0000218e10016003a008501720083017300ad
:1049d000838173000008200015003a004000200089
:1049e0001300370085017200830173008381730017
:1049f00005003a0004a8be0006a8be001000200072
:104a00000b0037000201e9000402420085824a00df
:104a100006034b0087834b000748a300f9ff3200d1
:104a20000740a00004a8be0006a8be002000200089
:104a3000800098009200980000000600680447007b
:104a40000294be000094be00fc0447008694be00a1
:104a50008494be0009007800d1ff070008007800a8
:104a6000cfff070099007800814f70000b003b00da
:104a70000800be000c0107004f00b1000300370022
:104a8000f3ff2700f2ff2f006110b9004f06be00b0
:104a90004f05be004f04be000080fa000000060073
:104aa000889fbe00830478000300e0002c003500de
:104ab00003003c00008270000402710026003200f6
:104ac00036432000c50020008383cf000a00390050
:104ad0000541b1008283cf00070039000541b100d4
:104ae0008183cf00040039000541b1008083cf00ed
:104af000010039000541b10085c353006022b800b0
:104b0000120032000a003b008482720061026000e1
:104b10008301d1000281d3008180d3000080d300c3
:104b20000603e8008743e800f7ff3a000700370074
:104b30000000400081804800020149008381490053
:104b40000603e9008743e900f9ff3a0098000700ef
:104b500009f0a70003f0a0004f04be00000006000b
:104b600060001000e080180060011900e081190069
:104b7000d3ff3b00033e2c00f7ff37002800fa006c
:104b8000889fbe008a9fbe008c9fbe0007067800eb
:104b9000878669000c003b000304780087047800d6
:104ba00008f0a10009f0a100840f5000858f580083
:104bb000860f5900890f5c00030033000cf0a2003f
:104bc00001003a000cf0a1009cff07006400e10026
:104bd0005f003200780147006408e10061003200a4
:104be0006c014700748557003200be001201be0000
:104bf0003a04be001a05be001e039000be0a9000d3
:104c00008503530006003d000004fd008104fd0003
:104c10000205fd008305fd008703ea000503780017
:104c20000df8a3000400320060041400e0841c00ae
:104c300060051d00e0851d006022b8007d03200096
:104c40000d38e1008006eb000b0039004433dd0035
:104c5000f300b200830173003900370084827200d0
:104c60000d027800e10664008b85d1000a85d3002f
:104c70008984d3000884d3008703e900f7ff3b0051
:104c800008004000898048000a0149008b814900e2
:104c900004003b0060001000e08018006001190073
:104ca000e08119000358a300090032008d827200d0
:104cb00084827200610260008301d1000281d3000e
:104cc0008180d3000080d3000603e8001b0037007a
:104cd0000348a30017003a000600e0001700340064
:104ce0000603e9000d00a300000048008180480091
:104cf00002014900838149000348a3000f003a00e4
:104d00000600e000090034000603e900000040004e
:104d100081804800020149008381490001003a0076
:104d20000003eb000348a300f5ff32006022b80047
:104d30000200370084827200618266001c00070056
:104d400003f0a1000cf0a70003f0a0004fff370014
:104d5000640147006408e10002003a000df8a30076
:104d600047ff3a003200be001201be0047ff370085
:104d70006022b800060220000000d0008180d2002e
:104d80000482d2008582d2000000a00002025200fc
:104d900083825a0003003b000202420083824a00e1
:104da0000000a1000603e900f3ff3a00000006003e
:104db0001800200057002000080453000d003d009b
:104dc0000600200097fc2f000740e1001e00340081
:104dd00084827200610260008301d1000281d300ed
:104de0008180d3000080d3000804e800f8ff3a0077
:104df000470020006104600005047400040464009e
:104e00000d00320061004000e08048006001490070
:104e1000e081490003b8a500070032000603e8005e
:104e20006538e10004003a008301d1000281d3001b
:104e30008180d3000080d300f87f20000830e1009b
:104e400003003500080378006000b8006011b80066
:104e50004433dd00f300b20083017300000006005c
:104e600005ff270005826100070032000428e100e9
:104e700001003200240005000600070001003a008e
:104e8000440005000408050002000700f9ff3a008d
:104e9000140005006f8261008102700085027100bc
:104ea0008502720000000600e48240001078a30032
:104eb00007003200640240001178a3003400be00f5
:104ec0001401be00040032000330a70000000600f9
:104ed0003500be001501be000330a0000000060032
:104ee0000200fa00e7c2bf000080fb000000d10012
:104ef0000080fb0061006000000f78001e00780059
:104f00000000d000000f7800e7c2bf000080fb0067
:104f1000610060009e00780080804000010f7800f2
:104f20001e0078000000d000000f7800e6c2bf002d
:104f30000080fb004700de000080fb009e00780040
:104f400080804000010f78001e0078000000d00033
:104f5000000f7800e6c2bf000080fb004600de00c4
:104f60000080fb00610060009e00780080804000af
:104f7000010f78001e0078000080fa000000060093
:104f80001a00fa00889fbe00000f780011079800f1
:104f9000220798001e00780010007800300f98005b
:104fa0003e0890000000e00003003d003e09900034
:104fb0000201ea00320f98003e0990006110b9002a
:104fc00089f6070030079800410798001e009000fe
:104fd00010007800400f98004e0890000000e0009c
:104fe00003003d004e0990000201ea00420f9800c4
:104ff0004e0990006110b9007bf607005007980039
:10500000610798006000b80070079800010f9800d1
:105010006000b800100f9800210f98002e0090003b
:10502000cf80de0070f607000001be003e00900059
:10503000ce00900097f607000000e00009003c0059
:105040002e009000cf80de0067f607000001be0052
:105050005e009000ee0090008ef607000000e00079
:10506000520034005e019000ee0190003e0090007e
:10507000ce00900087f607000000e0002100340019
:105080001e00780010007800cf80de0056f6070082
:105090000004be002e009000cf80de0052f6070014
:1050a0000001be000800be007cf607003e01900033
:1050b000ce019000adf6070070079800010f980030
:1050c0001e00900010007800cf80de0046f607003a
:1050d0000004be002e009000cf80de0042f60700e4
:1050e0000001be000800be006cf607003e01900003
:1050f000ce0190009df60700100f9800210f980038
:10510000200037001e00780010007800cf80de00fd
:1051100035f607000004be002e009000cf80de00b0
:1051200031f607000001be000800be005bf6070074
:105130005e019000ee0190008cf607007007980069
:10514000010f98001e00900010007800cf80de0054
:1051500025f607000004be002e009000cf80de0080
:1051600021f607000001be000800be004bf6070054
:105170005e019000ee0190007cf60700100f980091
:10518000210f98001e0478007e0090008e08900089
:10519000b8f60700000c78001e0490001e0890006e
:1051a000ae089000b3f60700000c78004f04be0074
:1051b0000080fa00000006000000fa00350e07002b
:1051c00009f60700a2992900232a240033f60700d4
:1051d000024022004397240064f6070060808800a4
:1051e00071808800300e07000080fa000000060081
:1051f0002c00fa00889fbe00e07e8000f17e8000d7
:10520000008fbe002e0c0700cf80de002007980024
:1052100031079800340c0700cf80de00400798006b
:10522000510798004e009000de009000eef5070058
:105230002017980031179800e2f92e0073ca230056
:105240002e109000be10900014f607002017980052
:10525000311798002e119000be1190002e10900072
:10526000be109000a5f60700b2fd200093042400b4
:105270000af6070002002000a34724003bf60700bf
:1052800060079800710798002e009000be00900003
:10529000d5f507004017980051179800e2f92e0045
:1052a00073ca23004e109000de109000fbf507003b
:1052b00040179800511798004e119000de11900091
:1052c0004e109000de1090008cf60700b2fd20001a
:1052d00093042400f1f5070002002000a3472400f6
:1052e00022f60700000f9800110f98000e09900099
:1052f0009e0990006e009000fe0090007ff607006f
:10530000020020000300240018f60700200f980078
:10531000310f98000e0990009e0990006e009000d9
:10532000fe00900074f6070042df2f0043d52300f3
:105330000ef60700400f9800510f98002e089000bd
:10534000be0890000004be0009f0a2001e00be00ce
:10535000c7f607000001be000800be00cff5070039
:10536000600f9800710f98002e089000be08900002
:105370000004be0009f0a2001e00be00bef6070039
:105380000001be000800be00c4f507000017980029
:10539000111798006e099000fe099000a07e800011
:1053a000b17e800055f60700a07e8800b17e88009f
:1053b0000e1190009e119000c07e8000d17e800072
:1053c0004ef60700c07e8800d17e88004e0990000e
:1053d000de099000e07e8000f17e800047f6070045
:1053e000e07e8800f17e8800b2fd2000930c24004e
:1053f000e07e8000f17e8000a6f507000000e0005e
:1054000007003400b2fd2000930c2400e07e8000f1
:10541000f17e800038f60700e07e8800f17e88008b
:105420006011b800e07e8000f17e800094f60700f5
:105430000000e00007003d00b2fd2000930c2400b6
:10544000e07e8000f17e80002cf60700e07e880080
:10545000f17e88000000eb009d0b07000000eb00d0
:10546000a50b07004f04be000080fa0000000600f4
:105470002400fa00889fbe008a9fbe00000f7800bb
:1054800011079800117d8000800020000008b800fe
:10549000c2fe200002044000e07e8000f17e800019
:1054a00075f607001801be007cf507000005be0078
:1054b000117d8000800020000008b80002ff20005d
:1054c00002044000e07e8000f17e800068f6070064
:1054d0001801be0071f507000001be000a00be0001
:1054e00006f607002007980031079800117d80001c
:1054f000800020000008b800c2fe2000020040002a
:105500001000be000004be0009f0a200e07e800092
:10551000f17e800056f607000001be000800be00c4
:105520005ef507000005be00117d800080002000b0
:105530000008b80002ff200002044000e07e800066
:10554000f17e80004cf607001801be0053f50700fd
:105550000001be000a00be00e8f507004007980001
:1055600051079800d0cc2c00c1e4230060079800bc
:10557000710798000000200001f82300000f980038
:10558000110f98002e019000be0190002e00900097
:10559000be00900041f507000004be004e019000df
:1055a000de0190004e009000de0090003bf5070009
:1055b0000001be000800be00d0f5070032f607006b
:1055c000200f9800310f98004e019000de019000ee
:1055d0002e009000be00900060f6070001f0a200cf
:1055e000400f9800510f98002e099000be099000be
:1055f0006e009000fe00900028f507000004be0039
:105600004e089000de0890001bf607000001be0067
:105610000800be0021f50700600f9800710f980088
:105620004e099000de0990000e0890009e08900040
:105630001af5070000179800111798001e0478004b
:1056400042df2f0043d523000e1090009e109000e3
:1056500012f50700020020000300240043f50700b4
:105660000001be006e089000fe089000a2f5070041
:10567000d2c72800e373240008f507007df5070072
:10568000000c78001e04900042df2f0043d5230059
:105690000e1090009e10900000f507000200200000
:1056a0000300240031f507006e099000fe09900008
:1056b00092f50700d2c72800e3732400f7f407002f
:1056c0006cf50700000c78004f05be004f04be00cb
:1056d0000080fa0000000600a800fa00889fbe00c3
:1056e0008a9fbe008c1f78002a080700190e070049
:1056f000a0030700b70507004d0a07006b08070065
:10570000201b2d00530b0700c60f070023100700b6
:10571000ad100700e7100700f1fd0700000f78004b
:105720001e00e00006003500900020009e0f1000d3
:1057300003003c009e007800117d880002003700c5
:10574000101d2d00430b0700107d8000e40f50005a
:1057500003003c0010002000007d8800020037009c
:1057600020002000007d8800e40047000e80e80053
:105770005d0107000000eb00300798003e0090003c
:10578000e90f50001f003c006000b800400798007f
:10579000510798006000b800400798005107980032
:1057a0004e019000de019000f07022000100200008
:1057b000800f5100818f590008003c00000000005c
:1057c0004e009000de00900061004000e080480044
:1057d0004007980051079800f1ff3700107d8000c6
:1057e000cf80de00b60c0700490d07000000e00086
:1057f000fdff32003e0090000000e80030079800f6
:10580000deff3700a27e8000b37e8000027f88002a
:10581000137f8800c07e8000d17e8000207f8800ba
:10582000317f880064fe070071fe07000000eb0076
:10583000300798003e0090000000e000a6003c0009
:105840006c0047009b0b07006c0047007000900045
:105850000000e00098003a006c004700100078005b
:10586000600f98006c00470020019000b00190008c
:10587000720f9800031798006c00470040019000d9
:10588000d00190001217980023179800e27e800044
:10589000f37e80001e109000ae10900017f50700f8
:1058a0001017980021179800ee089000c000200003
:1058b0000008b800c3fb200003014000ee08900080
:1058c000c00020000008b80043fa20000300400098
:1058d0003019780020117800ee089000c0002000f8
:1058e0000008b80003fc200003014000ee0890000f
:1058f000c00020000008b80083fa20000300400028
:105900003019780020117800ee089000c0002000c7
:105910000008b80042fa2000020440001e10900067
:10592000ae10900054f507000001be007e08900004
:105930008e10900059f40700008cbe00ee08900015
:10594000c00020000008b80083fa200003044000d3
:105950001e109000ae10900045f507000001be003b
:105960007e0890008e1090004cf40700008cbe0062
:10597000ee089000800020000008b800c2ff200060
:1059800002064000ee089000800020000008b800e9
:10599000c3ff2000030040006011b8001000be00eb
:1059a0003ef407000005be00628080007380800026
:1059b00000002000a14724006cf407000004be0092
:1059c000ee089000c00020000008b80042fa200055
:1059d00002024000ee089000c00020000008b8005d
:1059e000c3fb2000030040001001be001400be00f5
:1059f000c1f407000001be000800be0027f4070044
:105a00000001be000a00be00bcf40700008ebe000c
:105a1000ee089000800020000008b800020021007d
:105a200002064000ee089000800020000008b80048
:105a300003002100030040006011b8001000be0008
:105a400016f407000005be006280800073808000ad
:105a500000002000a147240044f407000004be0019
:105a6000ee089000c00020000008b80082fa200074
:105a700002024000ee089000c00020000008b800bc
:105a800003fc2000030040001001be001400be0013
:105a900099f407000001be000800be00fff30700f4
:105aa0000001be000a00be0094f40700008ebe0094
:105ab000a01f2d00670a07006c00470070009000cf
:105ac000e10f40005bff32003e0090000000e80064
:105ad0003007980057ff3700117d800080002000bc
:105ae0000008b800c2fe200002054000628080006d
:105af0007380800000002000a14724001bf40700f1
:105b00000004be00027f8000137f8000a07e800022
:105b1000b17e800078f407000001be000800be00de
:105b2000def30700008dbe00117d800080002000a4
:105b30000008b80003ff20000305400062808000d9
:105b40007380800000002000a147240007f40700b4
:105b50000004be00227f8000337f8000c07e800072
:105b6000d17e800064f407000001be000800be0082
:105b7000caf30700008dbe00cd00070061022000bf
:105b80008e8040007c00470039fe07008180800045
:105b900000af2000808f500014003400ee08900009
:105ba000908080000088b9000200220011000900e6
:105bb0000200d8008000fd006e0890000100500037
:105bc000600f9800be109000908080000088b9009f
:105bd00002002200110009000200d8008000fd0030
:105be0003e10900001005000301798009e00900079
:105bf000a00020000088b9006e099000000041005c
:105c0000600f9800ae009000a00020000088b9004e
:105c10003e11900000004100301798006102200002
:105c20008e8040007c004700823e2000d4fc0700ac
:105c3000880220000e0444003e109000cf80de0059
:105c400069f30700809fbe006e089000cf80de00e1
:105c500065f30700809fbe00c0202d00801f7800e4
:105c600008007800b6e90700ea87570080022000a4
:105c70000e004000f70907006e089000f5080700c5
:105c80003e109000300907006000b80040079800ff
:105c9000510798004e019000de019000f02324008f
:105ca000f1002000800f5100818f590008003c0056
:105cb000000000004e009000de00900061004000f7
:105cc000e08048004007980051079800f1ff370036
